{
  "_format": "hh-sol-artifact-1",
  "contractName": "ExamVaultAudit",
  "sourceName": "contracts/ExamVaultAudit.sol",
  "abi": [
    {
      "anonymous": false,
      "inputs": [
        {
          "indexed": false,
          "internalType": "string",
          "name": "userPseudo",
          "type": "string"
        },
        {
          "indexed": false,
          "internalType": "string",
          "name": "paperHash",
          "type": "string"
        },
        {
          "indexed": false,
          "internalType": "string",
          "name": "action",
          "type": "string"
        },
        {
          "indexed": false,
          "internalType": "uint256",
          "name": "timestamp",
          "type": "uint256"
        }
      ],
      "name": "AccessRecorded",
      "type": "event"
    },
    {
      "inputs": [
        {
          "internalType": "string",
          "name": "_userPseudo",
          "type": "string"
        },
        {
          "internalType": "string",
          "name": "_paperHash",
          "type": "string"
        },
        {
          "internalType": "string",
          "name": "_action",
          "type": "string"
        }
      ],
      "name": "recordAccess",
      "outputs": [],
      "stateMutability": "nonpayable",
      "type": "function"
    }
  ],
  "bytecode": "0x6080604052348015600f57600080fd5b506102c78061001f6000396000f3fe608060405234801561001057600080fd5b506004361061002b5760003560e01c8063c599b11114610030575b600080fd5b61004a60048036038101906100459190610106565b61004c565b005b7f61e0c0a13e85fc7cdb029ba84b7b92ffab7e809328245c0a12ce6ea491f61b1b868686868686426040516100879796959493929190610231565b60405180910390a1505050505050565b600080fd5b600080fd5b600080fd5b600080fd5b600080fd5b60008083601f8401126100c6576100c56100a1565b5b8235905067ffffffffffffffff8111156100e3576100e26100a6565b5b6020830191508360018202830111156100ff576100fe6100ab565b5b9250929050565b6000806000806000806060878903121561012357610122610097565b5b600087013567ffffffffffffffff8111156101415761014061009c565b5b61014d89828a016100b0565b9650965050602087013567ffffffffffffffff8111156101705761016f61009c565b5b61017c89828a016100b0565b9450945050604087013567ffffffffffffffff81111561019f5761019e61009c565b5b6101ab89828a016100b0565b92509250509295509295509295565b600082825260208201905092915050565b82818337600083830152505050565b6000601f19601f8301169050919050565b60006101f783856101ba565b93506102048385846101cb565b61020d836101da565b840190509392505050565b6000819050919050565b61022b81610218565b82525050565b6000608082019050818103600083015261024c81898b6101eb565b905081810360208301526102618187896101eb565b905081810360408301526102768185876101eb565b90506102856060830184610222565b9897505050505050505056fea2646970667358221220d6083b572e070858e2295d27943c08b4f7eb4a69118255fa3595fae768ef21f264736f6c634300081b0033",
  "linkReferences": {},
  "deployedLinkReferences": {}
}