{"contracts/ExamVaultAudit.sol":{"ExamVaultAudit":{"abi":[{"anonymous":false,"inputs":[{"indexed":false,"internalType":"string","name":"userPseudo","type":"string"},{"indexed":false,"internalType":"string","name":"paperHash","type":"string"},{"indexed":false,"internalType":"string","name":"action","type":"string"},{"indexed":false,"internalType":"uint256","name":"timestamp","type":"uint256"}],"name":"AccessRecorded","type":"event"},{"inputs":[{"internalType":"string","name":"_userPseudo","type":"string"},{"internalType":"string","name":"_paperHash","type":"string"},{"internalType":"string","name":"_action","type":"string"}],"name":"recordAccess","outputs":[],"stateMutability":"nonpayable","type":"function"}],"evm":{"bytecode":{"linkReferences":{},"object":"6080604052348015600f57600080fd5b506102c78061001f6000396000f3fe608060405234801561001057600080fd5b506004361061002b5760003560e01c8063c599b11114610030575b600080fd5b61004a60048036038101906100459190610106565b61004c565b005b7f61e0c0a13e85fc7cdb029ba84b7b92ffab7e809328245c0a12ce6ea491f61b1b868686868686426040516100879796959493929190610231565b60405180910390a1505050505050565b600080fd5b600080fd5b600080fd5b600080fd5b600080fd5b60008083601f8401126100c6576100c56100a1565b5b8235905067ffffffffffffffff8111156100e3576100e26100a6565b5b6020830191508360018202830111156100ff576100fe6100ab565b5b9250929050565b6000806000806000806060878903121561012357610122610097565b5b600087013567ffffffffffffffff8111156101415761014061009c565b5b61014d89828a016100b0565b9650965050602087013567ffffffffffffffff8111156101705761016f61009c565b5b61017c89828a016100b0565b9450945050604087013567ffffffffffffffff81111561019f5761019e61009c565b5b6101ab89828a016100b0565b92509250509295509295509295565b600082825260208201905092915050565b82818337600083830152505050565b6000601f19601f8301169050919050565b60006101f783856101ba565b93506102048385846101cb565b61020d836101da565b840190509392505050565b6000819050919050565b61022b81610218565b82525050565b6000608082019050818103600083015261024c81898b6101eb565b905081810360208301526102618187896101eb565b905081810360408301526102768185876101eb565b90506102856060830184610222565b9897505050505050505056fea264697066735822122017ffc71ad998adb3bf33a76215a55e28ce63fc0d83f2efc77a8ae5a13d509f9064736f6c634300081b0033","opcodes":"PUSH1 0x80 PUSH1 0x40 MSTORE CALLVALUE DUP1 ISZERO PUSH1 0xF JUMPI PUSH1 0x0 DUP1 REVERT JUMPDEST POP PUSH2 0x2C7 DUP1 PUSH2 0x1F PUSH1 0x0 CODECOPY PUSH1 0x0 RETURN INVALID PUSH1 0x80 PUSH1 0x40 MSTORE CALLVALUE DUP1 ISZERO PUSH2 0x10 JUMPI PUSH1 0x0 DUP1 REVERT JUMPDEST POP PUSH1 0x4 CALLDATASIZE LT PUSH2 0x2B JUMPI PUSH1 0x0 CALLDATALOAD PUSH1 0xE0 SHR DUP1 PUSH4 0xC599B111 EQ PUSH2 0x30 JUMPI JUMPDEST PUSH1 0x0 DUP1 REVERT JUMPDEST PUSH2 0x4A PUSH1 0x4 DUP1 CALLDATASIZE SUB DUP2 ADD SWAP1 PUSH2 0x45 SWAP2 SWAP1 PUSH2 0x106 JUMP JUMPDEST PUSH2 0x4C JUMP JUMPDEST STOP JUMPDEST PUSH32 0x61E0C0A13E85FC7CDB029BA84B7B92FFAB7E809328245C0A12CE6EA491F61B1B DUP7 DUP7 DUP7 DUP7 DUP7 DUP7 TIMESTAMP PUSH1 0x40 MLOAD PUSH2 0x87 SWAP8 SWAP7 SWAP6 SWAP5 SWAP4 SWAP3 SWAP2 SWAP1 PUSH2 0x231 JUMP JUMPDEST PUSH1 0x40 MLOAD DUP1 SWAP2 SUB SWAP1 LOG1 POP POP POP POP POP POP JUMP JUMPDEST PUSH1 0x0 DUP1 REVERT JUMPDEST PUSH1 0x0 DUP1 REVERT JUMPDEST PUSH1 0x0 DUP1 REVERT JUMPDEST PUSH1 0x0 DUP1 REVERT JUMPDEST PUSH1 0x0 DUP1 REVERT JUMPDEST PUSH1 0x0 DUP1 DUP4 PUSH1 0x1F DUP5 ADD SLT PUSH2 0xC6 JUMPI PUSH2 0xC5 PUSH2 0xA1 JUMP JUMPDEST JUMPDEST DUP3 CALLDATALOAD SWAP1 POP PUSH8 0xFFFFFFFFFFFFFFFF DUP2 GT ISZERO PUSH2 0xE3 JUMPI PUSH2 0xE2 PUSH2 0xA6 JUMP JUMPDEST JUMPDEST PUSH1 0x20 DUP4 ADD SWAP2 POP DUP4 PUSH1 0x1 DUP3 MUL DUP4 ADD GT ISZERO PUSH2 0xFF JUMPI PUSH2 0xFE PUSH2 0xAB JUMP JUMPDEST JUMPDEST SWAP3 POP SWAP3 SWAP1 POP JUMP JUMPDEST PUSH1 0x0 DUP1 PUSH1 0x0 DUP1 PUSH1 0x0 DUP1 PUSH1 0x60 DUP8 DUP10 SUB SLT ISZERO PUSH2 0x123 JUMPI PUSH2 0x122 PUSH2 0x97 JUMP JUMPDEST JUMPDEST PUSH1 0x0 DUP8 ADD CALLDATALOAD PUSH8 0xFFFFFFFFFFFFFFFF DUP2 GT ISZERO PUSH2 0x141 JUMPI PUSH2 0x140 PUSH2 0x9C JUMP JUMPDEST JUMPDEST PUSH2 0x14D DUP10 DUP3 DUP11 ADD PUSH2 0xB0 JUMP JUMPDEST SWAP7 POP SWAP7 POP POP PUSH1 0x20 DUP8 ADD CALLDATALOAD PUSH8 0xFFFFFFFFFFFFFFFF DUP2 GT ISZERO PUSH2 0x170 JUMPI PUSH2 0x16F PUSH2 0x9C JUMP JUMPDEST JUMPDEST PUSH2 0x17C DUP10 DUP3 DUP11 ADD PUSH2 0xB0 JUMP JUMPDEST SWAP5 POP SWAP5 POP POP PUSH1 0x40 DUP8 ADD CALLDATALOAD PUSH8 0xFFFFFFFFFFFFFFFF DUP2 GT ISZERO PUSH2 0x19F JUMPI PUSH2 0x19E PUSH2 0x9C JUMP JUMPDEST JUMPDEST PUSH2 0x1AB DUP10 DUP3 DUP11 ADD PUSH2 0xB0 JUMP JUMPDEST SWAP3 POP SWAP3 POP POP SWAP3 SWAP6 POP SWAP3 SWAP6 POP SWAP3 SWAP6 JUMP JUMPDEST PUSH1 0x0 DUP3 DUP3 MSTORE PUSH1 0x20 DUP3 ADD SWAP1 POP SWAP3 SWAP2 POP POP JUMP JUMPDEST DUP3 DUP2 DUP4 CALLDATACOPY PUSH1 0x0 DUP4 DUP4 ADD MSTORE POP POP POP JUMP JUMPDEST PUSH1 0x0 PUSH1 0x1F NOT PUSH1 0x1F DUP4 ADD AND SWAP1 POP SWAP2 SWAP1 POP JUMP JUMPDEST PUSH1 0x0 PUSH2 0x1F7 DUP4 DUP6 PUSH2 0x1BA JUMP JUMPDEST SWAP4 POP PUSH2 0x204 DUP4 DUP6 DUP5 PUSH2 0x1CB JUMP JUMPDEST PUSH2 0x20D DUP4 PUSH2 0x1DA JUMP JUMPDEST DUP5 ADD SWAP1 POP SWAP4 SWAP3 POP POP POP JUMP JUMPDEST PUSH1 0x0 DUP2 SWAP1 POP SWAP2 SWAP1 POP JUMP JUMPDEST PUSH2 0x22B DUP2 PUSH2 0x218 JUMP JUMPDEST DUP3 MSTORE POP POP JUMP JUMPDEST PUSH1 0x0 PUSH1 0x80 DUP3 ADD SWAP1 POP DUP2 DUP2 SUB PUSH1 0x0 DUP4 ADD MSTORE PUSH2 0x24C DUP2 DUP10 DUP12 PUSH2 0x1EB JUMP JUMPDEST SWAP1 POP DUP2 DUP2 SUB PUSH1 0x20 DUP4 ADD MSTORE PUSH2 0x261 DUP2 DUP8 DUP10 PUSH2 0x1EB JUMP JUMPDEST SWAP1 POP DUP2 DUP2 SUB PUSH1 0x40 DUP4 ADD MSTORE PUSH2 0x276 DUP2 DUP6 DUP8 PUSH2 0x1EB JUMP JUMPDEST SWAP1 POP PUSH2 0x285 PUSH1 0x60 DUP4 ADD DUP5 PUSH2 0x222 JUMP JUMPDEST SWAP9 SWAP8 POP POP POP POP POP POP POP POP JUMP INVALID LOG2 PUSH5 0x6970667358 0x22 SLT KECCAK256 OR SELFDESTRUCT 0xC7 BYTE 0xD9 SWAP9 0xAD 0xB3 0xBF CALLER 0xA7 PUSH3 0x15A55E 0x28 0xCE PUSH4 0xFC0D83F2 0xEF 0xC7 PUSH27 0x8AE5A13D509F9064736F6C634300081B0033000000000000000000 "},"methodIdentifiers":{"recordAccess(string,string,string)":"c599b111"}}}}}